{
  "contractName": "VotingSystem",
  "abi": [
    {
      "inputs": [],
      "stateMutability": "nonpayable",
      "type": "constructor"
    },
    {
      "anonymous": false,
      "inputs": [
        {
          "indexed": true,
          "internalType": "address",
          "name": "voter",
          "type": "address"
        },
        {
          "indexed": false,
          "internalType": "uint256",
          "name": "candidateId",
          "type": "uint256"
        }
      ],
      "name": "Voted",
      "type": "event"
    },
    {
      "inputs": [
        {
          "internalType": "uint256",
          "name": "",
          "type": "uint256"
        }
      ],
      "name": "candidates",
      "outputs": [
        {
          "internalType": "uint256",
          "name": "id",
          "type": "uint256"
        },
        {
          "internalType": "string",
          "name": "name",
          "type": "string"
        },
        {
          "internalType": "uint256",
          "name": "voteCount",
          "type": "uint256"
        }
      ],
      "stateMutability": "view",
      "type": "function",
      "constant": true
    },
    {
      "inputs": [],
      "name": "candidatesCount",
      "outputs": [
        {
          "internalType": "uint256",
          "name": "",
          "type": "uint256"
        }
      ],
      "stateMutability": "view",
      "type": "function",
      "constant": true
    },
    {
      "inputs": [
        {
          "internalType": "address",
          "name": "",
          "type": "address"
        }
      ],
      "name": "hasVoted",
      "outputs": [
        {
          "internalType": "bool",
          "name": "",
          "type": "bool"
        }
      ],
      "stateMutability": "view",
      "type": "function",
      "constant": true
    },
    {
      "inputs": [
        {
          "internalType": "uint256",
          "name": "",
          "type": "uint256"
        }
      ],
      "name": "voters",
      "outputs": [
        {
          "internalType": "address",
          "name": "",
          "type": "address"
        }
      ],
      "stateMutability": "view",
      "type": "function",
      "constant": true
    },
    {
      "inputs": [
        {
          "internalType": "uint256",
          "name": "_id",
          "type": "uint256"
        },
        {
          "internalType": "string",
          "name": "_name",
          "type": "string"
        }
      ],
      "name": "addCandidate",
      "outputs": [],
      "stateMutability": "nonpayable",
      "type": "function"
    },
    {
      "inputs": [
        {
          "internalType": "uint256",
          "name": "_candidateId",
          "type": "uint256"
        }
      ],
      "name": "vote",
      "outputs": [],
      "stateMutability": "nonpayable",
      "type": "function"
    },
    {
      "inputs": [],
      "name": "getWinner",
      "outputs": [
        {
          "internalType": "uint256",
          "name": "",
          "type": "uint256"
        }
      ],
      "stateMutability": "view",
      "type": "function",
      "constant": true
    },
    {
      "inputs": [],
      "name": "getVoters",
      "outputs": [
        {
          "internalType": "address[]",
          "name": "",
          "type": "address[]"
        }
      ],
      "stateMutability": "view",
      "type": "function",
      "constant": true
    }
  ],
  "bytecode": "0x6080604052600060015534801561001557600080fd5b5061106a806100256000396000f3fe608060405234801561001057600080fd5b50600436106100885760003560e01c80633477ee2e1161005b5780633477ee2e146101135780638e7ea5b214610145578063cdd7225314610163578063da58c7d91461018157610088565b80630121b93f1461008d57806309eef43e146100a95780631750a3d0146100d95780632d35a8a2146100f5575b600080fd5b6100a760048036038101906100a2919061071a565b6101b1565b005b6100c360048036038101906100be91906107a5565b6103cd565b6040516100d091906107ed565b60405180910390f35b6100f360048036038101906100ee919061094e565b6103ed565b005b6100fd6104bc565b60405161010a91906109b9565b60405180910390f35b61012d6004803603810190610128919061071a565b6104c2565b60405161013c93929190610a53565b60405180910390f35b61014d610574565b60405161015a91906109b9565b60405180910390f35b61016b610603565b6040516101789190610b4f565b60405180910390f35b61019b6004803603810190610196919061071a565b610691565b6040516101a89190610b80565b60405180910390f35b600260003373ffffffffffffffffffffffffffffffffffffffff1673ffffffffffffffffffffffffffffffffffffffff16815260200190815260200160002060009054906101000a900460ff161561023e576040517f08c379a000000000000000000000000000000000000000000000000000000000815260040161023590610be7565b60405180910390fd5b60008060008381526020019081526020016000206000015403610296576040517f08c379a000000000000000000000000000000000000000000000000000000000815260040161028d90610c53565b60405180910390fd5b6001600260003373ffffffffffffffffffffffffffffffffffffffff1673ffffffffffffffffffffffffffffffffffffffff16815260200190815260200160002060006101000a81548160ff0219169083151502179055506003339080600181540180825580915050600190039060005260206000200160009091909190916101000a81548173ffffffffffffffffffffffffffffffffffffffff021916908373ffffffffffffffffffffffffffffffffffffffff160217905550600080828152602001908152602001600020600201600081548092919061037790610ca2565b91905055503373ffffffffffffffffffffffffffffffffffffffff167f4d99b957a2bc29a30ebd96a7be8e68fe50a3c701db28a91436490b7d53870ca4826040516103c291906109b9565b60405180910390a250565b60026020528060005260406000206000915054906101000a900460ff1681565b60008060008481526020019081526020016000206000015414610445576040517f08c379a000000000000000000000000000000000000000000000000000000000815260040161043c90610d36565b60405180910390fd5b604051806060016040528083815260200182815260200160008152506000808481526020019081526020016000206000820151816000015560208201518160010190816104929190610f62565b5060408201518160020155905050600160008154809291906104b390610ca2565b91905055505050565b60015481565b60006020528060005260406000206000915090508060000154908060010180546104eb90610d85565b80601f016020809104026020016040519081016040528092919081815260200182805461051790610d85565b80156105645780601f1061053957610100808354040283529160200191610564565b820191906000526020600020905b81548152906001019060200180831161054757829003601f168201915b5050505050908060020154905083565b60008060009050600080600190505b60015481116105fa57600080600083815260200190815260200160002060000154141580156105c657508260008083815260200190815260200160002060020154115b156105e7576000808281526020019081526020016000206002015492508091505b80806105f290610ca2565b915050610583565b50809250505090565b6060600380548060200260200160405190810160405280929190818152602001828054801561068757602002820191906000526020600020905b8160009054906101000a900473ffffffffffffffffffffffffffffffffffffffff1673ffffffffffffffffffffffffffffffffffffffff168152602001906001019080831161063d575b5050505050905090565b600381815481106106a157600080fd5b906000526020600020016000915054906101000a900473ffffffffffffffffffffffffffffffffffffffff1681565b6000604051905090565b600080fd5b600080fd5b6000819050919050565b6106f7816106e4565b811461070257600080fd5b50565b600081359050610714816106ee565b92915050565b6000602082840312156107305761072f6106da565b5b600061073e84828501610705565b91505092915050565b600073ffffffffffffffffffffffffffffffffffffffff82169050919050565b600061077282610747565b9050919050565b61078281610767565b811461078d57600080fd5b50565b60008135905061079f81610779565b92915050565b6000602082840312156107bb576107ba6106da565b5b60006107c984828501610790565b91505092915050565b60008115159050919050565b6107e7816107d2565b82525050565b600060208201905061080260008301846107de565b92915050565b600080fd5b600080fd5b6000601f19601f8301169050919050565b7f4e487b7100000000000000000000000000000000000000000000000000000000600052604160045260246000fd5b61085b82610812565b810181811067ffffffffffffffff8211171561087a57610879610823565b5b80604052505050565b600061088d6106d0565b90506108998282610852565b919050565b600067ffffffffffffffff8211156108b9576108b8610823565b5b6108c282610812565b9050602081019050919050565b82818337600083830152505050565b60006108f16108ec8461089e565b610883565b90508281526020810184848401111561090d5761090c61080d565b5b6109188482856108cf565b509392505050565b600082601f83011261093557610934610808565b5b81356109458482602086016108de565b91505092915050565b60008060408385031215610965576109646106da565b5b600061097385828601610705565b925050602083013567ffffffffffffffff811115610994576109936106df565b5b6109a085828601610920565b9150509250929050565b6109b3816106e4565b82525050565b60006020820190506109ce60008301846109aa565b92915050565b600081519050919050565b600082825260208201905092915050565b60005b83811015610a0e5780820151818401526020810190506109f3565b60008484015250505050565b6000610a25826109d4565b610a2f81856109df565b9350610a3f8185602086016109f0565b610a4881610812565b840191505092915050565b6000606082019050610a6860008301866109aa565b8181036020830152610a7a8185610a1a565b9050610a8960408301846109aa565b949350505050565b600081519050919050565b600082825260208201905092915050565b6000819050602082019050919050565b610ac681610767565b82525050565b6000610ad88383610abd565b60208301905092915050565b6000602082019050919050565b6000610afc82610a91565b610b068185610a9c565b9350610b1183610aad565b8060005b83811015610b42578151610b298882610acc565b9750610b3483610ae4565b925050600181019050610b15565b5085935050505092915050565b60006020820190508181036000830152610b698184610af1565b905092915050565b610b7a81610767565b82525050565b6000602082019050610b956000830184610b71565b92915050565b7f596f75206861766520616c726561647920766f74656400000000000000000000600082015250565b6000610bd16016836109df565b9150610bdc82610b9b565b602082019050919050565b60006020820190508181036000830152610c0081610bc4565b9050919050565b7f43616e64696461746520646f6573206e6f742065786973740000000000000000600082015250565b6000610c3d6018836109df565b9150610c4882610c07565b602082019050919050565b60006020820190508181036000830152610c6c81610c30565b9050919050565b7f4e487b7100000000000000000000000000000000000000000000000000000000600052601160045260246000fd5b6000610cad826106e4565b91507fffffffffffffffffffffffffffffffffffffffffffffffffffffffffffffffff8203610cdf57610cde610c73565b5b600182019050919050565b7f43616e64696461746520494420616c7265616479206578697374730000000000600082015250565b6000610d20601b836109df565b9150610d2b82610cea565b602082019050919050565b60006020820190508181036000830152610d4f81610d13565b9050919050565b7f4e487b7100000000000000000000000000000000000000000000000000000000600052602260045260246000fd5b60006002820490506001821680610d9d57607f821691505b602082108103610db057610daf610d56565b5b50919050565b60008190508160005260206000209050919050565b60006020601f8301049050919050565b600082821b905092915050565b600060088302610e187fffffffffffffffffffffffffffffffffffffffffffffffffffffffffffffffff82610ddb565b610e228683610ddb565b95508019841693508086168417925050509392505050565b6000819050919050565b6000610e5f610e5a610e55846106e4565b610e3a565b6106e4565b9050919050565b6000819050919050565b610e7983610e44565b610e8d610e8582610e66565b848454610de8565b825550505050565b600090565b610ea2610e95565b610ead818484610e70565b505050565b5b81811015610ed157610ec6600082610e9a565b600181019050610eb3565b5050565b601f821115610f1657610ee781610db6565b610ef084610dcb565b81016020851015610eff578190505b610f13610f0b85610dcb565b830182610eb2565b50505b505050565b600082821c905092915050565b6000610f3960001984600802610f1b565b1980831691505092915050565b6000610f528383610f28565b9150826002028217905092915050565b610f6b826109d4565b67ffffffffffffffff811115610f8457610f83610823565b5b610f8e8254610d85565b610f99828285610ed5565b600060209050601f831160018114610fcc5760008415610fba578287015190505b610fc48582610f46565b86555061102c565b601f198416610fda86610db6565b60005b8281101561100257848901518255600182019150602085019450602081019050610fdd565b8683101561101f578489015161101b601f891682610f28565b8355505b6001600288020188555050505b50505050505056fea26469706673582212203de7fac73721579da1cb1647ba4cc6c1df63265036cb96f811e45d78b9f0d5d564736f6c63430008130033",
  "immutableReferences": {},
  "source": "// SPDX-License-Identifier: MIT\npragma solidity ^0.8.0;\n\ncontract VotingSystem {\n    // Struct to represent a candidate\n    struct Candidate {\n        uint id;\n        string name;\n        uint voteCount;\n    }\n\n    // Mapping to store candidates\n    mapping(uint => Candidate) public candidates;\n\n    // Keep track of the candidates count\n    uint public candidatesCount = 0;\n    \n    // Mapping to store whether an address has voted\n    mapping(address => bool) public hasVoted;\n\n    // Events to track voting actions\n    event Voted(address indexed voter, uint candidateId);\n    address[] public voters;\n\n    // Modifier to ensure only eligible voters can cast their votes\n    modifier onlyEligibleVoter() {\n        // Implement logic to check eligibility, for example, by verifying if the voter is registered\n        _;\n    }\n\n    constructor() {\n        \n    }\n\n    // Function to add a candidate\n    function addCandidate(uint _id, string memory _name) public {\n        // Check if candidate ID already exists\n        require(candidates[_id].id == 0, \"Candidate ID already exists\");\n        \n        // Add candidate\n        candidates[_id] = Candidate(_id, _name, 0);\n        candidatesCount++;\n    }\n\n    // Function to cast a vote\n    function vote(uint _candidateId) public onlyEligibleVoter {\n        // Check if the voter has not voted before\n        require(!hasVoted[msg.sender], \"You have already voted\");\n\n        // Check if the candidate exists\n        require(candidates[_candidateId].id != 0, \"Candidate does not exist\");\n        \n        // Record that the voter has voted\n        hasVoted[msg.sender] = true;\n        voters.push(msg.sender);\n\n        // Increment the vote count for the candidate\n        candidates[_candidateId].voteCount++;\n\n        // Emit event\n        emit Voted(msg.sender, _candidateId);\n    }\n\n    // Function to get the winner candidate\n    function getWinner() public view returns (uint) {\n        uint maxVotes = 0;\n        uint winnerId = 0;\n        for (uint i = 1; i <= candidatesCount; i++) {\n            if (candidates[i].id != 0 && candidates[i].voteCount > maxVotes) {\n                maxVotes = candidates[i].voteCount;\n                winnerId = i;\n            }\n        }\n        return winnerId;\n    }\n\n    // Function to get the list of voters\n    function getVoters() public view returns (address[] memory) {\n        return voters;\n    }\n}",
  "sourcePath": "/Users/somto/Desktop/block/Voting/contracts/VotingSystem.sol",
  "compiler": {
    "name": "solc",
    "version": "0.8.19+commit.7dd6d404.Emscripten.clang"
  },
  "schemaVersion": "3.4.16",
  "updatedAt": "2024-03-04T09:49:33.274Z",
  "networkType": "ethereum",
  "devdoc": {
    "kind": "dev",
    "methods": {},
    "version": 1
  },
  "userdoc": {
    "kind": "user",
    "methods": {},
    "version": 1
  }
}